{
  "_format": "hh-sol-artifact-1",
  "contractName": "INTRO",
  "sourceName": "contracts/INTRO.sol",
  "abi": [
    {
      "anonymous": false,
      "inputs": [
        {
          "indexed": true,
          "internalType": "address",
          "name": "owner",
          "type": "address"
        },
        {
          "indexed": true,
          "internalType": "address",
          "name": "spender",
          "type": "address"
        },
        {
          "indexed": false,
          "internalType": "uint256",
          "name": "value",
          "type": "uint256"
        }
      ],
      "name": "Approval",
      "type": "event"
    },
    {
      "anonymous": false,
      "inputs": [
        {
          "indexed": false,
          "internalType": "address",
          "name": "account",
          "type": "address"
        }
      ],
      "name": "Paused",
      "type": "event"
    },
    {
      "anonymous": false,
      "inputs": [
        {
          "indexed": true,
          "internalType": "bytes32",
          "name": "role",
          "type": "bytes32"
        },
        {
          "indexed": true,
          "internalType": "bytes32",
          "name": "previousAdminRole",
          "type": "bytes32"
        },
        {
          "indexed": true,
          "internalType": "bytes32",
          "name": "newAdminRole",
          "type": "bytes32"
        }
      ],
      "name": "RoleAdminChanged",
      "type": "event"
    },
    {
      "anonymous": false,
      "inputs": [
        {
          "indexed": true,
          "internalType": "bytes32",
          "name": "role",
          "type": "bytes32"
        },
        {
          "indexed": true,
          "internalType": "address",
          "name": "account",
          "type": "address"
        },
        {
          "indexed": true,
          "internalType": "address",
          "name": "sender",
          "type": "address"
        }
      ],
      "name": "RoleGranted",
      "type": "event"
    },
    {
      "anonymous": false,
      "inputs": [
        {
          "indexed": true,
          "internalType": "bytes32",
          "name": "role",
          "type": "bytes32"
        },
        {
          "indexed": true,
          "internalType": "address",
          "name": "account",
          "type": "address"
        },
        {
          "indexed": true,
          "internalType": "address",
          "name": "sender",
          "type": "address"
        }
      ],
      "name": "RoleRevoked",
      "type": "event"
    },
    {
      "anonymous": false,
      "inputs": [
        {
          "indexed": true,
          "internalType": "address",
          "name": "from",
          "type": "address"
        },
        {
          "indexed": true,
          "internalType": "address",
          "name": "to",
          "type": "address"
        },
        {
          "indexed": false,
          "internalType": "uint256",
          "name": "value",
          "type": "uint256"
        }
      ],
      "name": "Transfer",
      "type": "event"
    },
    {
      "anonymous": false,
      "inputs": [
        {
          "indexed": false,
          "internalType": "address",
          "name": "account",
          "type": "address"
        }
      ],
      "name": "Unpaused",
      "type": "event"
    },
    {
      "inputs": [],
      "name": "DEFAULT_ADMIN_ROLE",
      "outputs": [
        {
          "internalType": "bytes32",
          "name": "",
          "type": "bytes32"
        }
      ],
      "stateMutability": "view",
      "type": "function"
    },
    {
      "inputs": [
        {
          "internalType": "address",
          "name": "owner",
          "type": "address"
        },
        {
          "internalType": "address",
          "name": "spender",
          "type": "address"
        }
      ],
      "name": "allowance",
      "outputs": [
        {
          "internalType": "uint256",
          "name": "",
          "type": "uint256"
        }
      ],
      "stateMutability": "view",
      "type": "function"
    },
    {
      "inputs": [
        {
          "internalType": "address",
          "name": "spender",
          "type": "address"
        },
        {
          "internalType": "uint256",
          "name": "amount",
          "type": "uint256"
        }
      ],
      "name": "approve",
      "outputs": [
        {
          "internalType": "bool",
          "name": "",
          "type": "bool"
        }
      ],
      "stateMutability": "nonpayable",
      "type": "function"
    },
    {
      "inputs": [
        {
          "internalType": "address",
          "name": "account",
          "type": "address"
        }
      ],
      "name": "balanceOf",
      "outputs": [
        {
          "internalType": "uint256",
          "name": "",
          "type": "uint256"
        }
      ],
      "stateMutability": "view",
      "type": "function"
    },
    {
      "inputs": [],
      "name": "decimals",
      "outputs": [
        {
          "internalType": "uint8",
          "name": "",
          "type": "uint8"
        }
      ],
      "stateMutability": "view",
      "type": "function"
    },
    {
      "inputs": [
        {
          "internalType": "address",
          "name": "spender",
          "type": "address"
        },
        {
          "internalType": "uint256",
          "name": "subtractedValue",
          "type": "uint256"
        }
      ],
      "name": "decreaseAllowance",
      "outputs": [
        {
          "internalType": "bool",
          "name": "",
          "type": "bool"
        }
      ],
      "stateMutability": "nonpayable",
      "type": "function"
    },
    {
      "inputs": [
        {
          "internalType": "bytes32",
          "name": "role",
          "type": "bytes32"
        }
      ],
      "name": "getRoleAdmin",
      "outputs": [
        {
          "internalType": "bytes32",
          "name": "",
          "type": "bytes32"
        }
      ],
      "stateMutability": "view",
      "type": "function"
    },
    {
      "inputs": [
        {
          "internalType": "bytes32",
          "name": "role",
          "type": "bytes32"
        },
        {
          "internalType": "address",
          "name": "account",
          "type": "address"
        }
      ],
      "name": "grantRole",
      "outputs": [],
      "stateMutability": "nonpayable",
      "type": "function"
    },
    {
      "inputs": [
        {
          "internalType": "bytes32",
          "name": "role",
          "type": "bytes32"
        },
        {
          "internalType": "address",
          "name": "account",
          "type": "address"
        }
      ],
      "name": "hasRole",
      "outputs": [
        {
          "internalType": "bool",
          "name": "",
          "type": "bool"
        }
      ],
      "stateMutability": "view",
      "type": "function"
    },
    {
      "inputs": [
        {
          "internalType": "address",
          "name": "spender",
          "type": "address"
        },
        {
          "internalType": "uint256",
          "name": "addedValue",
          "type": "uint256"
        }
      ],
      "name": "increaseAllowance",
      "outputs": [
        {
          "internalType": "bool",
          "name": "",
          "type": "bool"
        }
      ],
      "stateMutability": "nonpayable",
      "type": "function"
    },
    {
      "inputs": [
        {
          "internalType": "address",
          "name": "_admin",
          "type": "address"
        },
        {
          "internalType": "string",
          "name": "_name",
          "type": "string"
        },
        {
          "internalType": "string",
          "name": "_symbol",
          "type": "string"
        }
      ],
      "name": "initialize",
      "outputs": [],
      "stateMutability": "nonpayable",
      "type": "function"
    },
    {
      "inputs": [],
      "name": "name",
      "outputs": [
        {
          "internalType": "string",
          "name": "",
          "type": "string"
        }
      ],
      "stateMutability": "view",
      "type": "function"
    },
    {
      "inputs": [],
      "name": "pause",
      "outputs": [],
      "stateMutability": "nonpayable",
      "type": "function"
    },
    {
      "inputs": [],
      "name": "paused",
      "outputs": [
        {
          "internalType": "bool",
          "name": "",
          "type": "bool"
        }
      ],
      "stateMutability": "view",
      "type": "function"
    },
    {
      "inputs": [
        {
          "internalType": "bytes32",
          "name": "role",
          "type": "bytes32"
        },
        {
          "internalType": "address",
          "name": "account",
          "type": "address"
        }
      ],
      "name": "renounceRole",
      "outputs": [],
      "stateMutability": "nonpayable",
      "type": "function"
    },
    {
      "inputs": [
        {
          "internalType": "bytes32",
          "name": "role",
          "type": "bytes32"
        },
        {
          "internalType": "address",
          "name": "account",
          "type": "address"
        }
      ],
      "name": "revokeRole",
      "outputs": [],
      "stateMutability": "nonpayable",
      "type": "function"
    },
    {
      "inputs": [
        {
          "internalType": "bytes4",
          "name": "interfaceId",
          "type": "bytes4"
        }
      ],
      "name": "supportsInterface",
      "outputs": [
        {
          "internalType": "bool",
          "name": "",
          "type": "bool"
        }
      ],
      "stateMutability": "view",
      "type": "function"
    },
    {
      "inputs": [],
      "name": "symbol",
      "outputs": [
        {
          "internalType": "string",
          "name": "",
          "type": "string"
        }
      ],
      "stateMutability": "view",
      "type": "function"
    },
    {
      "inputs": [],
      "name": "totalSupply",
      "outputs": [
        {
          "internalType": "uint256",
          "name": "",
          "type": "uint256"
        }
      ],
      "stateMutability": "view",
      "type": "function"
    },
    {
      "inputs": [
        {
          "internalType": "address",
          "name": "recipient",
          "type": "address"
        },
        {
          "internalType": "uint256",
          "name": "amount",
          "type": "uint256"
        }
      ],
      "name": "transfer",
      "outputs": [
        {
          "internalType": "bool",
          "name": "",
          "type": "bool"
        }
      ],
      "stateMutability": "nonpayable",
      "type": "function"
    },
    {
      "inputs": [
        {
          "internalType": "address",
          "name": "sender",
          "type": "address"
        },
        {
          "internalType": "address",
          "name": "recipient",
          "type": "address"
        },
        {
          "internalType": "uint256",
          "name": "amount",
          "type": "uint256"
        }
      ],
      "name": "transferFrom",
      "outputs": [
        {
          "internalType": "bool",
          "name": "",
          "type": "bool"
        }
      ],
      "stateMutability": "nonpayable",
      "type": "function"
    },
    {
      "inputs": [],
      "name": "unpause",
      "outputs": [],
      "stateMutability": "nonpayable",
      "type": "function"
    }
  ],
  "bytecode": "0x608060405234801561001057600080fd5b506119f0806100206000396000f3fe608060405234801561001057600080fd5b50600436106101425760003560e01c80635c975abb116100b857806395d89b411161007c57806395d89b4114610274578063a217fddf1461027c578063a457c2d714610284578063a9059cbb14610297578063d547741f146102aa578063dd62ed3e146102bd57610142565b80635c975abb1461022b57806370a08231146102335780638456cb5914610246578063906571471461024e57806391d148541461026157610142565b8063248a9ca31161010a578063248a9ca3146101c05780632f2ff15d146101d3578063313ce567146101e857806336568abe146101fd57806339509351146102105780633f4ba83a1461022357610142565b806301ffc9a71461014757806306fdde0314610170578063095ea7b31461018557806318160ddd1461019857806323b872dd146101ad575b600080fd5b61015a610155366004611414565b6102d0565b60405161016791906114c5565b60405180910390f35b6101786102fd565b60405161016791906114d9565b61015a6101933660046113b1565b61038f565b6101a06103ac565b60405161016791906114d0565b61015a6101bb366004611305565b6103b2565b6101a06101ce3660046113da565b610452565b6101e66101e13660046113f2565b610467565b005b6101f0610490565b60405161016791906118b4565b6101e661020b3660046113f2565b610495565b61015a61021e3660046113b1565b6104db565b6101e661052a565b61015a61057f565b6101a06102413660046112b9565b610588565b6101e66105a3565b6101e661025c366004611340565b6105f7565b61015a61026f3660046113f2565b6106a7565b6101786106d2565b6101a06106e1565b61015a6102923660046113b1565b6106e6565b61015a6102a53660046113b1565b610761565b6101e66102b83660046113f2565b610775565b6101a06102cb3660046112d3565b610794565b60006001600160e01b03198216637965db0b60e01b14806102f557506102f5826107bf565b90505b919050565b60606036805461030c90611953565b80601f016020809104026020016040519081016040528092919081815260200182805461033890611953565b80156103855780601f1061035a57610100808354040283529160200191610385565b820191906000526020600020905b81548152906001019060200180831161036857829003601f168201915b5050505050905090565b60006103a361039c6107d8565b84846107dc565b50600192915050565b60355490565b60006103bf848484610890565b6001600160a01b0384166000908152603460205260408120816103e06107d8565b6001600160a01b03166001600160a01b031681526020019081526020016000205490508281101561042c5760405162461bcd60e51b8152600401610423906116e1565b60405180910390fd5b610447856104386107d8565b61044286856118f9565b6107dc565b506001949350505050565b60009081526097602052604090206001015490565b61047082610452565b6104818161047c6107d8565b6109b8565b61048b8383610a1c565b505050565b601290565b61049d6107d8565b6001600160a01b0316816001600160a01b0316146104cd5760405162461bcd60e51b81526004016104239061182e565b6104d78282610aa3565b5050565b60006103a36104e86107d8565b8484603460006104f66107d8565b6001600160a01b03908116825260208083019390935260409182016000908120918b168152925290205461044291906118c2565b61053261057f565b61054e5760405162461bcd60e51b815260040161042390611584565b6105596000336106a7565b6105755760405162461bcd60e51b8152600401610423906117b2565b61057d610b28565b565b60c95460ff1690565b6001600160a01b031660009081526033602052604090205490565b6105ab61057f565b156105c85760405162461bcd60e51b81526004016104239061163a565b6105d36000336106a7565b6105ef5760405162461bcd60e51b8152600401610423906116b2565b61057d610b96565b600054610100900460ff1680610610575060005460ff16155b61062c5760405162461bcd60e51b815260040161042390611664565b600054610100900460ff16158015610657576000805460ff1961ff0019909116610100171660011790555b61065f610bf1565b610667610c76565b6106718383610cee565b61067c600085610d76565b61068f84683635c9adc5dea00000610d80565b80156106a1576000805461ff00191690555b50505050565b60009182526097602090815260408084206001600160a01b0393909316845291905290205460ff1690565b60606037805461030c90611953565b600081565b600080603460006106f56107d8565b6001600160a01b03908116825260208083019390935260409182016000908120918816815292529020549050828110156107415760405162461bcd60e51b8152600401610423906117e9565b61075761074c6107d8565b8561044286856118f9565b5060019392505050565b60006103a361076e6107d8565b8484610890565b61077e82610452565b61078a8161047c6107d8565b61048b8383610aa3565b6001600160a01b03918216600090815260346020908152604080832093909416825291909152205490565b6001600160e01b031981166301ffc9a760e01b14919050565b3390565b6001600160a01b0383166108025760405162461bcd60e51b81526004016104239061176e565b6001600160a01b0382166108285760405162461bcd60e51b8152600401610423906115b2565b6001600160a01b0380841660008181526034602090815260408083209487168084529490915290819020849055517f8c5be1e5ebec7d5bd14f71427d1e84f3dd0314c0f7b2291e5b200ac8c7c3b925906108839085906114d0565b60405180910390a3505050565b6001600160a01b0383166108b65760405162461bcd60e51b815260040161042390611729565b6001600160a01b0382166108dc5760405162461bcd60e51b815260040161042390611541565b6108e783838361048b565b6001600160a01b038316600090815260336020526040902054818110156109205760405162461bcd60e51b8152600401610423906115f4565b61092a82826118f9565b6001600160a01b0380861660009081526033602052604080822093909355908516815290812080548492906109609084906118c2565b92505081905550826001600160a01b0316846001600160a01b03167fddf252ad1be2c89b69c2b068fc378daa952ba7f163c4a11628f55a4df523b3ef846040516109aa91906114d0565b60405180910390a350505050565b6109c282826106a7565b6104d7576109da816001600160a01b03166014610e40565b6109e5836020610e40565b6040516020016109f692919061143c565b60408051601f198184030181529082905262461bcd60e51b8252610423916004016114d9565b610a2682826106a7565b6104d75760008281526097602090815260408083206001600160a01b03851684529091529020805460ff19166001179055610a5f6107d8565b6001600160a01b0316816001600160a01b0316837f2f8788117e7eff1d82e926ec794901d17c78024a50270940304540a733656f0d60405160405180910390a45050565b610aad82826106a7565b156104d75760008281526097602090815260408083206001600160a01b03851684529091529020805460ff19169055610ae46107d8565b6001600160a01b0316816001600160a01b0316837ff6391f5c32d9c69d2a47ea670b442974b53935d1edc7fd64eb21e047a839171b60405160405180910390a45050565b610b3061057f565b610b4c5760405162461bcd60e51b815260040161042390611584565b60c9805460ff191690557f5db9ee0a495bf2e6ff9c91a7834c1ba4fdd244a5e8aa4e537bd38aeae4b073aa610b7f6107d8565b604051610b8c91906114b1565b60405180910390a1565b610b9e61057f565b15610bbb5760405162461bcd60e51b81526004016104239061163a565b60c9805460ff191660011790557f62e78cea01bee320cd4e420270b5ea74000d11b0c9f74754ebdbfc544b05a258610b7f6107d8565b600054610100900460ff1680610c0a575060005460ff16155b610c265760405162461bcd60e51b815260040161042390611664565b600054610100900460ff16158015610c51576000805460ff1961ff0019909116610100171660011790555b610c59610ff9565b610c6161106c565b8015610c73576000805461ff00191690555b50565b600054610100900460ff1680610c8f575060005460ff16155b610cab5760405162461bcd60e51b815260040161042390611664565b600054610100900460ff16158015610cd6576000805460ff1961ff0019909116610100171660011790555b610cde610ff9565b610ce6610ff9565b610c61610ff9565b600054610100900460ff1680610d07575060005460ff16155b610d235760405162461bcd60e51b815260040161042390611664565b600054610100900460ff16158015610d4e576000805460ff1961ff0019909116610100171660011790555b610d56610ff9565b610d6083836110ea565b801561048b576000805461ff0019169055505050565b6104d78282610a1c565b6001600160a01b038216610da65760405162461bcd60e51b81526004016104239061187d565b610db26000838361048b565b8060356000828254610dc491906118c2565b90915550506001600160a01b03821660009081526033602052604081208054839290610df19084906118c2565b90915550506040516001600160a01b038316906000907fddf252ad1be2c89b69c2b068fc378daa952ba7f163c4a11628f55a4df523b3ef90610e349085906114d0565b60405180910390a35050565b60606000610e4f8360026118da565b610e5a9060026118c2565b67ffffffffffffffff811115610e8057634e487b7160e01b600052604160045260246000fd5b6040519080825280601f01601f191660200182016040528015610eaa576020820181803683370190505b509050600360fc1b81600081518110610ed357634e487b7160e01b600052603260045260246000fd5b60200101906001600160f81b031916908160001a905350600f60fb1b81600181518110610f1057634e487b7160e01b600052603260045260246000fd5b60200101906001600160f81b031916908160001a9053506000610f348460026118da565b610f3f9060016118c2565b90505b6001811115610fd3576f181899199a1a9b1b9c1cb0b131b232b360811b85600f1660108110610f8157634e487b7160e01b600052603260045260246000fd5b1a60f81b828281518110610fa557634e487b7160e01b600052603260045260246000fd5b60200101906001600160f81b031916908160001a90535060049490941c93610fcc8161193c565b9050610f42565b508315610ff25760405162461bcd60e51b81526004016104239061150c565b9392505050565b600054610100900460ff1680611012575060005460ff16155b61102e5760405162461bcd60e51b815260040161042390611664565b600054610100900460ff16158015610c61576000805460ff1961ff0019909116610100171660011790558015610c73576000805461ff001916905550565b600054610100900460ff1680611085575060005460ff16155b6110a15760405162461bcd60e51b815260040161042390611664565b600054610100900460ff161580156110cc576000805460ff1961ff0019909116610100171660011790555b60c9805460ff191690558015610c73576000805461ff001916905550565b600054610100900460ff1680611103575060005460ff16155b61111f5760405162461bcd60e51b815260040161042390611664565b600054610100900460ff1615801561114a576000805460ff1961ff0019909116610100171660011790555b825161115d906036906020860190611188565b508151611171906037906020850190611188565b50801561048b576000805461ff0019169055505050565b82805461119490611953565b90600052602060002090601f0160209004810192826111b657600085556111fc565b82601f106111cf57805160ff19168380011785556111fc565b828001600101855582156111fc579182015b828111156111fc5782518255916020019190600101906111e1565b5061120892915061120c565b5090565b5b80821115611208576000815560010161120d565b80356001600160a01b03811681146102f857600080fd5b600082601f830112611248578081fd5b813567ffffffffffffffff80821115611263576112636119a4565b604051601f8301601f191681016020018281118282101715611287576112876119a4565b60405282815284830160200186101561129e578384fd5b82602086016020830137918201602001929092529392505050565b6000602082840312156112ca578081fd5b610ff282611221565b600080604083850312156112e5578081fd5b6112ee83611221565b91506112fc60208401611221565b90509250929050565b600080600060608486031215611319578081fd5b61132284611221565b925061133060208501611221565b9150604084013590509250925092565b600080600060608486031215611354578283fd5b61135d84611221565b9250602084013567ffffffffffffffff80821115611379578384fd5b61138587838801611238565b9350604086013591508082111561139a578283fd5b506113a786828701611238565b9150509250925092565b600080604083850312156113c3578182fd5b6113cc83611221565b946020939093013593505050565b6000602082840312156113eb578081fd5b5035919050565b60008060408385031215611404578182fd5b823591506112fc60208401611221565b600060208284031215611425578081fd5b81356001600160e01b031981168114610ff2578182fd5b60007f416363657373436f6e74726f6c3a206163636f756e742000000000000000000082528351611474816017850160208801611910565b7001034b99036b4b9b9b4b733903937b6329607d1b60179184019182015283516114a5816028840160208801611910565b01602801949350505050565b6001600160a01b0391909116815260200190565b901515815260200190565b90815260200190565b60006020825282518060208401526114f8816040850160208701611910565b601f01601f19169190910160400192915050565b6020808252818101527f537472696e67733a20686578206c656e67746820696e73756666696369656e74604082015260600190565b60208082526023908201527f45524332303a207472616e7366657220746f20746865207a65726f206164647260408201526265737360e81b606082015260800190565b60208082526014908201527314185d5cd8589b194e881b9bdd081c185d5cd95960621b604082015260600190565b60208082526022908201527f45524332303a20617070726f766520746f20746865207a65726f206164647265604082015261737360f01b606082015260800190565b60208082526026908201527f45524332303a207472616e7366657220616d6f756e7420657863656564732062604082015265616c616e636560d01b606082015260800190565b60208082526010908201526f14185d5cd8589b194e881c185d5cd95960821b604082015260600190565b6020808252602e908201527f496e697469616c697a61626c653a20636f6e747261637420697320616c72656160408201526d191e481a5b9a5d1a585b1a5e995960921b606082015260800190565b602080825260159082015274556e617574686f72697a656420746f20706175736560581b604082015260600190565b60208082526028908201527f45524332303a207472616e7366657220616d6f756e74206578636565647320616040820152676c6c6f77616e636560c01b606082015260800190565b60208082526025908201527f45524332303a207472616e736665722066726f6d20746865207a65726f206164604082015264647265737360d81b606082015260800190565b60208082526024908201527f45524332303a20617070726f76652066726f6d20746865207a65726f206164646040820152637265737360e01b606082015260800190565b60208082526017908201527f556e617574686f72697a656420746f20756e7061757365000000000000000000604082015260600190565b60208082526025908201527f45524332303a2064656372656173656420616c6c6f77616e63652062656c6f77604082015264207a65726f60d81b606082015260800190565b6020808252602f908201527f416363657373436f6e74726f6c3a2063616e206f6e6c792072656e6f756e636560408201526e103937b632b9903337b91039b2b63360891b606082015260800190565b6020808252601f908201527f45524332303a206d696e7420746f20746865207a65726f206164647265737300604082015260600190565b60ff91909116815260200190565b600082198211156118d5576118d561198e565b500190565b60008160001904831182151516156118f4576118f461198e565b500290565b60008282101561190b5761190b61198e565b500390565b60005b8381101561192b578181015183820152602001611913565b838111156106a15750506000910152565b60008161194b5761194b61198e565b506000190190565b60028104600182168061196757607f821691505b6020821081141561198857634e487b7160e01b600052602260045260246000fd5b50919050565b634e487b7160e01b600052601160045260246000fd5b634e487b7160e01b600052604160045260246000fdfea2646970667358221220f2c62099bd9b85aa2f4a2e42d2d95b4486eff130b5f051641a336b97e818767064736f6c63430008000033",
  "linkReferences": {},
  "deployedLinkReferences": {}
}